{
  "_format": "hh-sol-artifact-1",
  "contractName": "Forwarder",
  "sourceName": "contracts/Forwarder.sol",
  "abi": [
    {
      "inputs": [
        {
          "internalType": "string",
          "name": "name",
          "type": "string"
        },
        {
          "internalType": "string",
          "name": "version",
          "type": "string"
        }
      ],
      "stateMutability": "nonpayable",
      "type": "constructor"
    },
    {
      "anonymous": false,
      "inputs": [
        {
          "indexed": true,
          "internalType": "address",
          "name": "sender",
          "type": "address"
        }
      ],
      "name": "AddressRemovedFromWhitelist",
      "type": "event"
    },
    {
      "anonymous": false,
      "inputs": [
        {
          "indexed": true,
          "internalType": "address",
          "name": "sender",
          "type": "address"
        }
      ],
      "name": "AddressWhitelisted",
      "type": "event"
    },
    {
      "anonymous": false,
      "inputs": [
        {
          "indexed": true,
          "internalType": "address",
          "name": "from",
          "type": "address"
        },
        {
          "indexed": true,
          "internalType": "address",
          "name": "to",
          "type": "address"
        },
        {
          "indexed": true,
          "internalType": "bytes",
          "name": "data",
          "type": "bytes"
        }
      ],
      "name": "MetaTransactionExecuted",
      "type": "event"
    },
    {
      "anonymous": false,
      "inputs": [
        {
          "indexed": true,
          "internalType": "address",
          "name": "previousOwner",
          "type": "address"
        },
        {
          "indexed": true,
          "internalType": "address",
          "name": "newOwner",
          "type": "address"
        }
      ],
      "name": "OwnershipTransferred",
      "type": "event"
    },
    {
      "anonymous": false,
      "inputs": [
        {
          "indexed": false,
          "internalType": "address",
          "name": "account",
          "type": "address"
        }
      ],
      "name": "Paused",
      "type": "event"
    },
    {
      "anonymous": false,
      "inputs": [
        {
          "indexed": false,
          "internalType": "address",
          "name": "account",
          "type": "address"
        }
      ],
      "name": "Unpaused",
      "type": "event"
    },
    {
      "inputs": [],
      "name": "DOMAIN_SEPARATOR",
      "outputs": [
        {
          "internalType": "bytes32",
          "name": "",
          "type": "bytes32"
        }
      ],
      "stateMutability": "view",
      "type": "function"
    },
    {
      "inputs": [
        {
          "internalType": "address",
          "name": "sender",
          "type": "address"
        }
      ],
      "name": "addSenderToWhitelist",
      "outputs": [],
      "stateMutability": "nonpayable",
      "type": "function"
    },
    {
      "inputs": [
        {
          "components": [
            {
              "internalType": "address",
              "name": "from",
              "type": "address"
            },
            {
              "internalType": "address",
              "name": "to",
              "type": "address"
            },
            {
              "internalType": "uint256",
              "name": "value",
              "type": "uint256"
            },
            {
              "internalType": "uint256",
              "name": "gas",
              "type": "uint256"
            },
            {
              "internalType": "uint256",
              "name": "nonce",
              "type": "uint256"
            },
            {
              "internalType": "bytes",
              "name": "data",
              "type": "bytes"
            }
          ],
          "internalType": "struct Forwarder.ForwardRequest",
          "name": "req",
          "type": "tuple"
        },
        {
          "internalType": "bytes",
          "name": "signature",
          "type": "bytes"
        }
      ],
      "name": "execute",
      "outputs": [
        {
          "internalType": "bool",
          "name": "",
          "type": "bool"
        },
        {
          "internalType": "bytes",
          "name": "",
          "type": "bytes"
        }
      ],
      "stateMutability": "payable",
      "type": "function"
    },
    {
      "inputs": [
        {
          "internalType": "address",
          "name": "from",
          "type": "address"
        }
      ],
      "name": "getNonce",
      "outputs": [
        {
          "internalType": "uint256",
          "name": "",
          "type": "uint256"
        }
      ],
      "stateMutability": "view",
      "type": "function"
    },
    {
      "inputs": [
        {
          "internalType": "address",
          "name": "sender",
          "type": "address"
        }
      ],
      "name": "isWhitelisted",
      "outputs": [
        {
          "internalType": "bool",
          "name": "",
          "type": "bool"
        }
      ],
      "stateMutability": "view",
      "type": "function"
    },
    {
      "inputs": [
        {
          "internalType": "address payable",
          "name": "payoutAddress",
          "type": "address"
        }
      ],
      "name": "killForwarder",
      "outputs": [],
      "stateMutability": "nonpayable",
      "type": "function"
    },
    {
      "inputs": [],
      "name": "owner",
      "outputs": [
        {
          "internalType": "address",
          "name": "",
          "type": "address"
        }
      ],
      "stateMutability": "view",
      "type": "function"
    },
    {
      "inputs": [],
      "name": "pause",
      "outputs": [],
      "stateMutability": "nonpayable",
      "type": "function"
    },
    {
      "inputs": [],
      "name": "paused",
      "outputs": [
        {
          "internalType": "bool",
          "name": "",
          "type": "bool"
        }
      ],
      "stateMutability": "view",
      "type": "function"
    },
    {
      "inputs": [
        {
          "internalType": "address",
          "name": "sender",
          "type": "address"
        }
      ],
      "name": "removeSenderFromWhitelist",
      "outputs": [],
      "stateMutability": "nonpayable",
      "type": "function"
    },
    {
      "inputs": [],
      "name": "renounceOwnership",
      "outputs": [],
      "stateMutability": "nonpayable",
      "type": "function"
    },
    {
      "inputs": [
        {
          "internalType": "address",
          "name": "newOwner",
          "type": "address"
        }
      ],
      "name": "transferOwnership",
      "outputs": [],
      "stateMutability": "nonpayable",
      "type": "function"
    },
    {
      "inputs": [],
      "name": "unpause",
      "outputs": [],
      "stateMutability": "nonpayable",
      "type": "function"
    },
    {
      "inputs": [
        {
          "components": [
            {
              "internalType": "address",
              "name": "from",
              "type": "address"
            },
            {
              "internalType": "address",
              "name": "to",
              "type": "address"
            },
            {
              "internalType": "uint256",
              "name": "value",
              "type": "uint256"
            },
            {
              "internalType": "uint256",
              "name": "gas",
              "type": "uint256"
            },
            {
              "internalType": "uint256",
              "name": "nonce",
              "type": "uint256"
            },
            {
              "internalType": "bytes",
              "name": "data",
              "type": "bytes"
            }
          ],
          "internalType": "struct Forwarder.ForwardRequest",
          "name": "req",
          "type": "tuple"
        },
        {
          "internalType": "bytes",
          "name": "signature",
          "type": "bytes"
        }
      ],
      "name": "verify",
      "outputs": [
        {
          "internalType": "bool",
          "name": "",
          "type": "bool"
        }
      ],
      "stateMutability": "view",
      "type": "function"
    }
  ],
  "bytecode": "0x6101406040523480156200001257600080fd5b5060405162002a7a38038062002a7a8339818101604052810190620000389190620005fc565b81816200005a6200004e6200014560201b60201c565b6200014d60201b60201c565b60008060146101000a81548160ff02191690831515021790555060008280519060200120905060008280519060200120905060007f8b73c3c69bb8fe3d512ecc4cf759cc79239f7b179b0ffacaa9a75d522b39400f90508260e081815250508161010081815250504660a08181525050620000dd8184846200021160201b60201c565b608081815250503073ffffffffffffffffffffffffffffffffffffffff1660c08173ffffffffffffffffffffffffffffffffffffffff1681525050806101208181525050505050505060003390506200013c816200024d60201b60201c565b50505062000874565b600033905090565b60008060009054906101000a900473ffffffffffffffffffffffffffffffffffffffff169050816000806101000a81548173ffffffffffffffffffffffffffffffffffffffff021916908373ffffffffffffffffffffffffffffffffffffffff1602179055508173ffffffffffffffffffffffffffffffffffffffff168173ffffffffffffffffffffffffffffffffffffffff167f8be0079c531659141344cd1fd0a4f28419497f9722a3daafe3b4186f6b6457e060405160405180910390a35050565b600083838346306040516020016200022e959493929190620006fc565b6040516020818303038152906040528051906020012090509392505050565b6200025d6200034f60201b60201c565b6200026e81620003e060201b60201c565b15620002b1576040517f08c379a0000000000000000000000000000000000000000000000000000000008152600401620002a890620007e0565b60405180910390fd5b6001600260008373ffffffffffffffffffffffffffffffffffffffff1673ffffffffffffffffffffffffffffffffffffffff16815260200190815260200160002060006101000a81548160ff0219169083151502179055508073ffffffffffffffffffffffffffffffffffffffff167f4f783c179409b4127238bc9c990bc99b9a651666a0d20b51d6c42849eb88466d60405160405180910390a250565b6200035f6200014560201b60201c565b73ffffffffffffffffffffffffffffffffffffffff16620003856200043660201b60201c565b73ffffffffffffffffffffffffffffffffffffffff1614620003de576040517f08c379a0000000000000000000000000000000000000000000000000000000008152600401620003d59062000852565b60405180910390fd5b565b6000600260008373ffffffffffffffffffffffffffffffffffffffff1673ffffffffffffffffffffffffffffffffffffffff16815260200190815260200160002060009054906101000a900460ff169050919050565b60008060009054906101000a900473ffffffffffffffffffffffffffffffffffffffff16905090565b6000604051905090565b600080fd5b600080fd5b600080fd5b600080fd5b6000601f19601f8301169050919050565b7f4e487b7100000000000000000000000000000000000000000000000000000000600052604160045260246000fd5b620004c8826200047d565b810181811067ffffffffffffffff82111715620004ea57620004e96200048e565b5b80604052505050565b6000620004ff6200045f565b90506200050d8282620004bd565b919050565b600067ffffffffffffffff82111562000530576200052f6200048e565b5b6200053b826200047d565b9050602081019050919050565b60005b83811015620005685780820151818401526020810190506200054b565b8381111562000578576000848401525b50505050565b6000620005956200058f8462000512565b620004f3565b905082815260208101848484011115620005b457620005b362000478565b5b620005c184828562000548565b509392505050565b600082601f830112620005e157620005e062000473565b5b8151620005f38482602086016200057e565b91505092915050565b6000806040838503121562000616576200061562000469565b5b600083015167ffffffffffffffff8111156200063757620006366200046e565b5b6200064585828601620005c9565b925050602083015167ffffffffffffffff8111156200066957620006686200046e565b5b6200067785828601620005c9565b9150509250929050565b6000819050919050565b620006968162000681565b82525050565b6000819050919050565b620006b1816200069c565b82525050565b600073ffffffffffffffffffffffffffffffffffffffff82169050919050565b6000620006e482620006b7565b9050919050565b620006f681620006d7565b82525050565b600060a0820190506200071360008301886200068b565b6200072260208301876200068b565b6200073160408301866200068b565b620007406060830185620006a6565b6200074f6080830184620006eb565b9695505050505050565b600082825260208201905092915050565b7f41776c466f727761726465723a2073656e64657220616464726573732069732060008201527f616c72656164792077686974656c697374656400000000000000000000000000602082015250565b6000620007c860338362000759565b9150620007d5826200076a565b604082019050919050565b60006020820190508181036000830152620007fb81620007b9565b9050919050565b7f4f776e61626c653a2063616c6c6572206973206e6f7420746865206f776e6572600082015250565b60006200083a60208362000759565b9150620008478262000802565b602082019050919050565b600060208201905081810360008301526200086d816200082b565b9050919050565b60805160a05160c05160e05161010051610120516121b6620008c46000396000610cb601526000610cf801526000610cd701526000610c0c01526000610c6201526000610c8b01526121b66000f3fe6080604052600436106100dd5760003560e01c806347153f821161007f5780638456cb59116100595780638456cb591461028c5780638da5cb5b146102a3578063bf5d3bdb146102ce578063f2fde38b1461030b576100dd565b806347153f82146102195780635c975abb1461024a578063715018a614610275576100dd565b80633644e515116100bb5780633644e515146101715780633af32abf1461019c5780633f113a61146101d95780633f4ba83a14610202576100dd565b806301a9a352146100e25780632978cb401461010b5780632d0335ab14610134575b600080fd5b3480156100ee57600080fd5b5061010960048036038101906101049190611420565b610334565b005b34801561011757600080fd5b50610132600480360381019061012d919061148b565b6103da565b005b34801561014057600080fd5b5061015b60048036038101906101569190611420565b610442565b60405161016891906114d1565b60405180910390f35b34801561017d57600080fd5b5061018661048b565b6040516101939190611505565b60405180910390f35b3480156101a857600080fd5b506101c360048036038101906101be9190611420565b61049a565b6040516101d0919061153b565b60405180910390f35b3480156101e557600080fd5b5061020060048036038101906101fb9190611420565b6104f0565b005b34801561020e57600080fd5b506102176105df565b005b610233600480360381019061022e91906115df565b6105f1565b6040516102419291906116f4565b60405180910390f35b34801561025657600080fd5b5061025f6108eb565b60405161026c919061153b565b60405180910390f35b34801561028157600080fd5b5061028a610901565b005b34801561029857600080fd5b506102a1610915565b005b3480156102af57600080fd5b506102b8610927565b6040516102c59190611733565b60405180910390f35b3480156102da57600080fd5b506102f560048036038101906102f091906115df565b610950565b604051610302919061153b565b60405180910390f35b34801561031757600080fd5b50610332600480360381019061032d9190611420565b610b06565b005b61033c610b8a565b6000600260008373ffffffffffffffffffffffffffffffffffffffff1673ffffffffffffffffffffffffffffffffffffffff16815260200190815260200160002060006101000a81548160ff0219169083151502179055508073ffffffffffffffffffffffffffffffffffffffff167f535611fb62fa2a833988f283b779e417e996813e44046f521d76c17b5943b08c60405160405180910390a250565b6103e2610b8a565b8073ffffffffffffffffffffffffffffffffffffffff166108fc479081150290604051600060405180830381858888f19350505050158015610428573d6000803e3d6000fd5b508073ffffffffffffffffffffffffffffffffffffffff16ff5b6000600160008373ffffffffffffffffffffffffffffffffffffffff1673ffffffffffffffffffffffffffffffffffffffff168152602001908152602001600020549050919050565b6000610495610c08565b905090565b6000600260008373ffffffffffffffffffffffffffffffffffffffff1673ffffffffffffffffffffffffffffffffffffffff16815260200190815260200160002060009054906101000a900460ff169050919050565b6104f8610b8a565b6105018161049a565b15610541576040517f08c379a0000000000000000000000000000000000000000000000000000000008152600401610538906117d1565b60405180910390fd5b6001600260008373ffffffffffffffffffffffffffffffffffffffff1673ffffffffffffffffffffffffffffffffffffffff16815260200190815260200160002060006101000a81548160ff0219169083151502179055508073ffffffffffffffffffffffffffffffffffffffff167f4f783c179409b4127238bc9c990bc99b9a651666a0d20b51d6c42849eb88466d60405160405180910390a250565b6105e7610b8a565b6105ef610d22565b565b600060606105fd610d84565b600260003373ffffffffffffffffffffffffffffffffffffffff1673ffffffffffffffffffffffffffffffffffffffff16815260200190815260200160002060009054906101000a900460ff16610689576040517f08c379a000000000000000000000000000000000000000000000000000000000815260040161068090611863565b60405180910390fd5b610694858585610950565b6106d3576040517f08c379a00000000000000000000000000000000000000000000000000000000081526004016106ca906118f5565b60405180910390fd5b600185608001356106e49190611944565b600160008760000160208101906106fb9190611420565b73ffffffffffffffffffffffffffffffffffffffff1673ffffffffffffffffffffffffffffffffffffffff1681526020019081526020016000208190555060008086602001602081019061074f9190611420565b73ffffffffffffffffffffffffffffffffffffffff1687606001358860400135898060a0019061077f91906119a9565b8b60000160208101906107929190611420565b6040516020016107a493929190611a93565b6040516020818303038152906040526040516107c09190611aee565b600060405180830381858888f193505050503d80600081146107fe576040519150601f19603f3d011682016040523d82523d6000602084013e610803565b606091505b509150915081610817573d6000803e3d6000fd5b603f87606001356108289190611b34565b5a1161083757610836611b65565b5b868060a0019061084791906119a9565b604051610855929190611b94565b60405180910390208760200160208101906108709190611420565b73ffffffffffffffffffffffffffffffffffffffff168860000160208101906108999190611420565b73ffffffffffffffffffffffffffffffffffffffff167f5845892132946850460bff5a0083f71031bc5bf9aadcd40f1de79423eac9b10b60405160405180910390a48181935093505050935093915050565b60008060149054906101000a900460ff16905090565b610909610b8a565b6109136000610dce565b565b61091d610b8a565b610925610e92565b565b60008060009054906101000a900473ffffffffffffffffffffffffffffffffffffffff16905090565b600080610a5984848080601f016020809104026020016040519081016040528093929190818152602001838380828437600081840152601f19601f82011690508083019250505050505050610a4b7fdd8f4b70b0f4393e889bd39128a30628a78b61816a9eb8199759e7a349657e488860000160208101906109d29190611420565b8960200160208101906109e59190611420565b8a604001358b606001358c608001358d8060a00190610a0491906119a9565b604051610a12929190611b94565b6040518091039020604051602001610a309796959493929190611bad565b60405160208183030381529060405280519060200120610ef5565b610f0f90919063ffffffff16565b9050846080013560016000876000016020810190610a779190611420565b73ffffffffffffffffffffffffffffffffffffffff1673ffffffffffffffffffffffffffffffffffffffff16815260200190815260200160002054148015610afc5750846000016020810190610acd9190611420565b73ffffffffffffffffffffffffffffffffffffffff168173ffffffffffffffffffffffffffffffffffffffff16145b9150509392505050565b610b0e610b8a565b600073ffffffffffffffffffffffffffffffffffffffff168173ffffffffffffffffffffffffffffffffffffffff161415610b7e576040517f08c379a0000000000000000000000000000000000000000000000000000000008152600401610b7590611c8e565b60405180910390fd5b610b8781610dce565b50565b610b92610f36565b73ffffffffffffffffffffffffffffffffffffffff16610bb0610927565b73ffffffffffffffffffffffffffffffffffffffff1614610c06576040517f08c379a0000000000000000000000000000000000000000000000000000000008152600401610bfd90611cfa565b60405180910390fd5b565b60007f000000000000000000000000000000000000000000000000000000000000000073ffffffffffffffffffffffffffffffffffffffff163073ffffffffffffffffffffffffffffffffffffffff16148015610c8457507f000000000000000000000000000000000000000000000000000000000000000046145b15610cb1577f00000000000000000000000000000000000000000000000000000000000000009050610d1f565b610d1c7f00000000000000000000000000000000000000000000000000000000000000007f00000000000000000000000000000000000000000000000000000000000000007f0000000000000000000000000000000000000000000000000000000000000000610f3e565b90505b90565b610d2a610f78565b60008060146101000a81548160ff0219169083151502179055507f5db9ee0a495bf2e6ff9c91a7834c1ba4fdd244a5e8aa4e537bd38aeae4b073aa610d6d610f36565b604051610d7a9190611733565b60405180910390a1565b610d8c6108eb565b15610dcc576040517f08c379a0000000000000000000000000000000000000000000000000000000008152600401610dc390611d66565b60405180910390fd5b565b60008060009054906101000a900473ffffffffffffffffffffffffffffffffffffffff169050816000806101000a81548173ffffffffffffffffffffffffffffffffffffffff021916908373ffffffffffffffffffffffffffffffffffffffff1602179055508173ffffffffffffffffffffffffffffffffffffffff168173ffffffffffffffffffffffffffffffffffffffff167f8be0079c531659141344cd1fd0a4f28419497f9722a3daafe3b4186f6b6457e060405160405180910390a35050565b610e9a610d84565b6001600060146101000a81548160ff0219169083151502179055507f62e78cea01bee320cd4e420270b5ea74000d11b0c9f74754ebdbfc544b05a258610ede610f36565b604051610eeb9190611733565b60405180910390a1565b6000610f08610f02610c08565b83610fc1565b9050919050565b6000806000610f1e8585610ff4565b91509150610f2b81611077565b819250505092915050565b600033905090565b60008383834630604051602001610f59959493929190611d86565b6040516020818303038152906040528051906020012090509392505050565b610f806108eb565b610fbf576040517f08c379a0000000000000000000000000000000000000000000000000000000008152600401610fb690611e25565b60405180910390fd5b565b60008282604051602001610fd6929190611ebd565b60405160208183030381529060405280519060200120905092915050565b6000806041835114156110365760008060006020860151925060408601519150606086015160001a905061102a8782858561124c565b94509450505050611070565b60408351141561106757600080602085015191506040850151905061105c868383611359565b935093505050611070565b60006002915091505b9250929050565b6000600481111561108b5761108a611ef4565b5b81600481111561109e5761109d611ef4565b5b14156110a957611249565b600160048111156110bd576110bc611ef4565b5b8160048111156110d0576110cf611ef4565b5b1415611111576040517f08c379a000000000000000000000000000000000000000000000000000000000815260040161110890611f6f565b60405180910390fd5b6002600481111561112557611124611ef4565b5b81600481111561113857611137611ef4565b5b1415611179576040517f08c379a000000000000000000000000000000000000000000000000000000000815260040161117090611fdb565b60405180910390fd5b6003600481111561118d5761118c611ef4565b5b8160048111156111a05761119f611ef4565b5b14156111e1576040517f08c379a00000000000000000000000000000000000000000000000000000000081526004016111d89061206d565b60405180910390fd5b6004808111156111f4576111f3611ef4565b5b81600481111561120757611206611ef4565b5b1415611248576040517f08c379a000000000000000000000000000000000000000000000000000000000815260040161123f906120ff565b60405180910390fd5b5b50565b6000807f7fffffffffffffffffffffffffffffff5d576e7357a4501ddfe92f46681b20a08360001c1115611287576000600391509150611350565b601b8560ff161415801561129f5750601c8560ff1614155b156112b1576000600491509150611350565b6000600187878787604051600081526020016040526040516112d6949392919061213b565b6020604051602081039080840390855afa1580156112f8573d6000803e3d6000fd5b505050602060405103519050600073ffffffffffffffffffffffffffffffffffffffff168173ffffffffffffffffffffffffffffffffffffffff16141561134757600060019250925050611350565b80600092509250505b94509492505050565b60008060007f7fffffffffffffffffffffffffffffffffffffffffffffffffffffffffffffff60001b841690506000601b60ff8660001c901c61139c9190611944565b90506113aa8782888561124c565b935093505050935093915050565b600080fd5b600080fd5b600073ffffffffffffffffffffffffffffffffffffffff82169050919050565b60006113ed826113c2565b9050919050565b6113fd816113e2565b811461140857600080fd5b50565b60008135905061141a816113f4565b92915050565b600060208284031215611436576114356113b8565b5b60006114448482850161140b565b91505092915050565b6000611458826113c2565b9050919050565b6114688161144d565b811461147357600080fd5b50565b6000813590506114858161145f565b92915050565b6000602082840312156114a1576114a06113b8565b5b60006114af84828501611476565b91505092915050565b6000819050919050565b6114cb816114b8565b82525050565b60006020820190506114e660008301846114c2565b92915050565b6000819050919050565b6114ff816114ec565b82525050565b600060208201905061151a60008301846114f6565b92915050565b60008115159050919050565b61153581611520565b82525050565b6000602082019050611550600083018461152c565b92915050565b600080fd5b600060c0828403121561157157611570611556565b5b81905092915050565b600080fd5b600080fd5b600080fd5b60008083601f84011261159f5761159e61157a565b5b8235905067ffffffffffffffff8111156115bc576115bb61157f565b5b6020830191508360018202830111156115d8576115d7611584565b5b9250929050565b6000806000604084860312156115f8576115f76113b8565b5b600084013567ffffffffffffffff811115611616576116156113bd565b5b6116228682870161155b565b935050602084013567ffffffffffffffff811115611643576116426113bd565b5b61164f86828701611589565b92509250509250925092565b600081519050919050565b600082825260208201905092915050565b60005b8381101561169557808201518184015260208101905061167a565b838111156116a4576000848401525b50505050565b6000601f19601f8301169050919050565b60006116c68261165b565b6116d08185611666565b93506116e0818560208601611677565b6116e9816116aa565b840191505092915050565b6000604082019050611709600083018561152c565b818103602083015261171b81846116bb565b90509392505050565b61172d816113e2565b82525050565b60006020820190506117486000830184611724565b92915050565b600082825260208201905092915050565b7f41776c466f727761726465723a2073656e64657220616464726573732069732060008201527f616c72656164792077686974656c697374656400000000000000000000000000602082015250565b60006117bb60338361174e565b91506117c68261175f565b604082019050919050565b600060208201905081810360008301526117ea816117ae565b9050919050565b7f41776c466f727761726465723a2073656e646572206f66206d6574612d74726160008201527f6e73616374696f6e206973206e6f742077686974656c69737465640000000000602082015250565b600061184d603b8361174e565b9150611858826117f1565b604082019050919050565b6000602082019050818103600083015261187c81611840565b9050919050565b7f41776c466f727761726465723a207369676e617475726520646f6573206e6f7460008201527f206d617463682072657175657374000000000000000000000000000000000000602082015250565b60006118df602e8361174e565b91506118ea82611883565b604082019050919050565b6000602082019050818103600083015261190e816118d2565b9050919050565b7f4e487b7100000000000000000000000000000000000000000000000000000000600052601160045260246000fd5b600061194f826114b8565b915061195a836114b8565b9250827fffffffffffffffffffffffffffffffffffffffffffffffffffffffffffffffff0382111561198f5761198e611915565b5b828201905092915050565b600080fd5b600080fd5b600080fd5b600080833560016020038436030381126119c6576119c561199a565b5b80840192508235915067ffffffffffffffff8211156119e8576119e761199f565b5b602083019250600182023603831315611a0457611a036119a4565b5b509250929050565b600081905092915050565b82818337600083830152505050565b6000611a328385611a0c565b9350611a3f838584611a17565b82840190509392505050565b60008160601b9050919050565b6000611a6382611a4b565b9050919050565b6000611a7582611a58565b9050919050565b611a8d611a88826113e2565b611a6a565b82525050565b6000611aa0828587611a26565b9150611aac8284611a7c565b601482019150819050949350505050565b6000611ac88261165b565b611ad28185611a0c565b9350611ae2818560208601611677565b80840191505092915050565b6000611afa8284611abd565b915081905092915050565b7f4e487b7100000000000000000000000000000000000000000000000000000000600052601260045260246000fd5b6000611b3f826114b8565b9150611b4a836114b8565b925082611b5a57611b59611b05565b5b828204905092915050565b7f4e487b7100000000000000000000000000000000000000000000000000000000600052600160045260246000fd5b6000611ba1828486611a26565b91508190509392505050565b600060e082019050611bc2600083018a6114f6565b611bcf6020830189611724565b611bdc6040830188611724565b611be960608301876114c2565b611bf660808301866114c2565b611c0360a08301856114c2565b611c1060c08301846114f6565b98975050505050505050565b7f4f776e61626c653a206e6577206f776e657220697320746865207a65726f206160008201527f6464726573730000000000000000000000000000000000000000000000000000602082015250565b6000611c7860268361174e565b9150611c8382611c1c565b604082019050919050565b60006020820190508181036000830152611ca781611c6b565b9050919050565b7f4f776e61626c653a2063616c6c6572206973206e6f7420746865206f776e6572600082015250565b6000611ce460208361174e565b9150611cef82611cae565b602082019050919050565b60006020820190508181036000830152611d1381611cd7565b9050919050565b7f5061757361626c653a2070617573656400000000000000000000000000000000600082015250565b6000611d5060108361174e565b9150611d5b82611d1a565b602082019050919050565b60006020820190508181036000830152611d7f81611d43565b9050919050565b600060a082019050611d9b60008301886114f6565b611da860208301876114f6565b611db560408301866114f6565b611dc260608301856114c2565b611dcf6080830184611724565b9695505050505050565b7f5061757361626c653a206e6f7420706175736564000000000000000000000000600082015250565b6000611e0f60148361174e565b9150611e1a82611dd9565b602082019050919050565b60006020820190508181036000830152611e3e81611e02565b9050919050565b600081905092915050565b7f1901000000000000000000000000000000000000000000000000000000000000600082015250565b6000611e86600283611e45565b9150611e9182611e50565b600282019050919050565b6000819050919050565b611eb7611eb2826114ec565b611e9c565b82525050565b6000611ec882611e79565b9150611ed48285611ea6565b602082019150611ee48284611ea6565b6020820191508190509392505050565b7f4e487b7100000000000000000000000000000000000000000000000000000000600052602160045260246000fd5b7f45434453413a20696e76616c6964207369676e61747572650000000000000000600082015250565b6000611f5960188361174e565b9150611f6482611f23565b602082019050919050565b60006020820190508181036000830152611f8881611f4c565b9050919050565b7f45434453413a20696e76616c6964207369676e6174757265206c656e67746800600082015250565b6000611fc5601f8361174e565b9150611fd082611f8f565b602082019050919050565b60006020820190508181036000830152611ff481611fb8565b9050919050565b7f45434453413a20696e76616c6964207369676e6174757265202773272076616c60008201527f7565000000000000000000000000000000000000000000000000000000000000602082015250565b600061205760228361174e565b915061206282611ffb565b604082019050919050565b600060208201905081810360008301526120868161204a565b9050919050565b7f45434453413a20696e76616c6964207369676e6174757265202776272076616c60008201527f7565000000000000000000000000000000000000000000000000000000000000602082015250565b60006120e960228361174e565b91506120f48261208d565b604082019050919050565b60006020820190508181036000830152612118816120dc565b9050919050565b600060ff82169050919050565b6121358161211f565b82525050565b600060808201905061215060008301876114f6565b61215d602083018661212c565b61216a60408301856114f6565b61217760608301846114f6565b9594505050505056fea264697066735822122014e59ed24659e9408e39bbd9bd9507ed9ace9e6e2cba91320b12fa3a2ebe9af864736f6c63430008090033",
  "linkReferences": {},
  "deployedLinkReferences": {}
}